:020000040800F2
:100000000000022099C200084D0E00084F0E0008A3
:10001000510E0008530E0008550E000800000000A5
:10002000000000000000000000000000F1B0000827
:10003000570E00080000000091B10008F5B100085B
:10004000E9C20008E9C20008E9C20008E9C20008E4
:10005000E9C20008E9C20008E9C20008E9C20008D4
:10006000E9C20008E9C20008E9C20008590E000808
:10007000690E0008E9C20008E9C20008E9C20008E8
:10008000E9C20008E9C20008E9C20008790E0008C8
:10009000E9C20008890E0008E9C20008E9C20008A8
:1000A000E9C20008990E0008E9C20008E9C2000888
:1000B000E9C20008E9C20008E9C20008E9C2000874
:1000C000E9C20008E9C20008E9C20008E9C2000864
:1000D000E9C20008E9C20008A90E0008E9C2000848
:1000E000E9C20008E9C2000800000000E9C20008F7
:1000F000E9C20008E9C20008E9C20008E9C2000834
:10010000E9C20008E9C20008E9C20008E9C2000823
:10011000E9C20008B90E0008E9C20008E9C20008F7
:10012000E9C20008E9C20008E9C20008E9C2000803
:10013000E9C20008E9C20008E9C20008E9C20008F3
:1001400000000000000000000000000000000000AF
:10015000E9C20008E9C20008E9C20008C90E0008A7
:10016000E9C20008E9C20008E9C20008E9C20008C3
:10017000E9C20008E9C20008E9C200080000000066
:10018000E9C20008E9C20008E9C20008E9C20008A3
:10019000E9C20008E9C20008E9C20008E9C2000893
:1001A000E9C20008E9C20008E9C20008E9C2000883
:1001B000E9C20008E9C20008E9C20008E9C2000873
:1001C000E9C20008E9C20008E9C20008E9C2000863
:1001D000E9C20008E9C20008E9C20008E9C2000853
:1001E000E9C20008E9C20008E9C20008E9C2000843
:1001F000E9C20008E9C20008E9C20008E9C2000833
:10020000E9C20008E9C20008E9C20008E9C2000822
:10021000E9C20008E9C20008E9C20008E9C2000812
:10022000E9C20008E9C20008E9C2000800000000B5
:10023000E9C20008E9C2000800000000E9C20008A5
:10024000E9C20008E9C20008E9C20008E9C20008E2
:10025000E9C20008E9C20008E9C20008E9C20008D2
:10026000E9C20008E9C20008E9C20008E9C20008C2
:10027000E9C20008E9C20008E9C200080000000065
:10028000E9C20008E9C20008E9C200080000000055
:0802900000000000E9C20008B3
:1002A00010B5054C237833B9044B13B10448AFF3B0
:1002B00000800123237010BD880200200000000090
:1002C00008C5000808B5034B1BB103490348AFF349
:1002D000008008BD000000008C02002008C5000856
:1002E00010F8012B11F8013B012A28BF9A42F7D0E0
:1002F000D01A704753B94AB9002908BF00281CBF5B
:100300004FF0FF314FF0FF3000F074B9ADF1080C41
:100310006DE904CE00F006F8DDF804E0DDE9022323
:1003200004B070472DE9F047089D04468E46002B27
:100330004DD18A42944669D9B2FA82F252B101FA99
:1003400002F3C2F1200120FA01F10CFA02FC41EAA9
:10035000030E94404FEA1C48210CBEFBF8F61FFA2E
:100360008CF708FB16E341EA034306FB07F19942C9
:100370000AD91CEB030306F1FF3080F01F8199427C
:1003800040F21C81023E63445B1AA4B2B3FBF8F056
:1003900008FB103344EA034400FB07F7A7420AD9DD
:1003A0001CEB040400F1FF3380F00A81A74240F205
:1003B00007816444023840EA0640E41B00261DB170
:1003C000D4400023C5E900433146BDE8F0878B42A5
:1003D00009D9002D00F0EF800026C5E90001304664
:1003E0003146BDE8F087B3FA83F6002E4AD18B423E
:1003F00002D3824200F2F980841A61EB03030120E8
:100400009E46002DE0D0C5E9004EDDE702B9FFDED3
:10041000B2FA82F2002A40F09280A1EB0C014FEA7E
:100420001C471FFA8CFE0126200CB1FBF7F307FBDB
:10043000131140EA01410EFB03F0884208D91CEB7E
:10044000010103F1FF3802D2884200F2CB8043461B
:10045000091AA4B2B1FBF7F007FB101144EA0144FA
:100460000EFB00FEA64508D91CEB040400F1FF3189
:1004700002D2A64500F2BB800846A4EB0E0440EA77
:1004800003409CE7C6F12007B34022FA07FC4CEA80
:10049000030C20FA07F401FA06F31C43F9404FEA73
:1004A0001C4900FA06F3B1FBF9F8200C1FFA8CFE88
:1004B00009FB181140EA014108FB0EF0884202FADC
:1004C00006F20BD91CEB010108F1FF3A80F088809D
:1004D000884240F28580A8F102086144091AA4B25A
:1004E000B1FBF9F009FB101144EA014100FB0EFEDB
:1004F0008E4508D91CEB010100F1FF346CD28E450A
:100500006AD90238614440EA0840A0FB0294A1EB9A
:100510000E01A142C846A64656D353D05DB1B3EBF7
:10052000080261EB0E0101FA07F722FA06F3F14027
:100530001F43C5E9007100263146BDE8F087C2F1CE
:100540002003D8400CFA02FC21FA03F39140014346
:100550004FEA1C471FFA8CFEB3FBF7F007FB10367F
:100560000B0C43EA064300FB0EF69E4204FA02F42B
:1005700008D91CEB030300F1FF382FD29E422DD97E
:10058000023863449B1B89B2B3FBF7F607FB1633B3
:1005900041EA034106FB0EF38B4208D91CEB010133
:1005A00006F1FF3816D28B4214D9023E6144C91AB3
:1005B00046EA004638E72E46284605E70646E3E6C3
:1005C0001846F8E64B45A9D2B9EB020864EB0C0ECD
:1005D0000138A3E74646EAE7204694E74046D1E7DC
:1005E000D0467BE7023B614432E7304609E764448A
:1005F000023842E7704700BF30B585B00024009450
:1006000001940294039400F085FD01258DF80050BB
:100610008DF801404FF0105301930A238DF80830F4
:100620008DF809408DF80A5003238DF80B308DF8B2
:100630000C408DF80D408DF80E408DF80F40684647
:1006400000F086FD8DF801504FF0404301931823D0
:100650008DF808308DF80A408DF80E508DF80F5047
:10066000684600F075FD042000F062FD05B030BD65
:1006700008B50268034B9A4200D008BD04F014F993
:10068000FBE700BF0000014072B6FEE700B59FB077
:100690004C2200210BA80BF069FE2022002103A8A8
:1006A0000BF064FE022004F0A7F8002300933A4BFD
:1006B000DA6A22F00102DA62DB6A03F001030093D6
:1006C000364B9A6942F440429A619B6903F4404375
:1006D0000093009B314B9B6913F4005FFAD0304BC1
:1006E000D3F8F42042F00202C3F8F420D3F8F43037
:1006F00003F002030193019B00230293274B9A69A5
:1007000042F440429A619B6903F440430293224BB6
:10071000DA6A42F00102DA62DB6A03F00103029353
:10072000029B1E4B9B6913F4005FFAD029230B93A5
:100730004FF480330C9301231093119302231493ED
:10074000159305221692C0221792189319931A93A3
:1007500008231B9300231C931D930BA800F024FD7A
:10076000B0B93F2303930323049300230593082385
:1007700006934023079308934FF4806209920A93EB
:10078000042103A801F064F920B91FB05DF804FB4F
:10079000FFF77AFFFFF778FF00040058004802587F
:1007A0000044025808B5FFF727FF3C4B5B6913F480
:1007B000003F13D1BFF34F8FBFF36F8F374B002232
:1007C000C3F85022BFF34F8FBFF36F8F5A6942F4C3
:1007D00000325A61BFF34F8FBFF36F8F2F4B5B69AE
:1007E00013F4803F27D12D4B0022C3F88420BFF3A0
:1007F0004F8FD3F88040C4F34E3000E01846C4F366
:10080000C90243F6E07303EA401343EA82732349C3
:10081000C1F860321346013A002BF2D1431E002882
:10082000ECD1BFF34F8F4B6943F480334B61BFF37F
:100830004F8FBFF36F8F04F009F8FFF727FF00F029
:1008400031F80BF045FB00F035F900F05FFB06F0E6
:10085000D9F900F089FB00F0C5FB0AF033FE0AF07D
:100860006FFE0BF033FA06F001FA00F057F900F0D2
:1008700089F90BF051FB0BF087FB0BF0BFFB0BF082
:1008800075FC074807F0CAFF07F054FF08F040FC6A
:1008900008F062FF0AF075FAFEE700BF00ED00E025
:1008A000C450002030B591B000240B940C940D94EA
:1008B0000E940F94734BD3F8E02042F48072C3F887
:1008C000E020D3F8E02002F480720092009AD3F87E
:1008D000E02042F00202C3F8E020D3F8E02002F06A
:1008E00002020192019AD3F8E02042F48062C3F838
:1008F000E020D3F8E02002F480620292029AD3F85A
:10090000E02042F04002C3F8E020D3F8E02002F0FB
:1009100040020392039AD3F8E02042F00802C3F8A1
:10092000E020D3F8E02002F008020492049AD3F801
:10093000E02042F00402C3F8E020D3F8E02002F007
:1009400004020592059AD3F8E02042F00102C3F8B0
:10095000E020D3F8E02002F001020692069AD3F8D4
:10096000E02042F01002C3F8E020D3F8E02002F0CB
:1009700010020792079AD3F8E02042F40072C3F8FD
:10098000E020D3F8E02002F400720892089AD3F82D
:10099000E02042F08002C3F8E020D3F8E02002F02B
:1009A00080020992099AD3F8E02042F02002C3F8AD
:1009B000E020D3F8E03003F020030A930A9B40F6CE
:1009C0001F730B9303250C950BA92F4802F056FAC1
:1009D00043F698030B930C950D940BA92B4802F04A
:1009E0004DFA42F6FE730B930C950D940BA9284813
:1009F00002F044FA49F6FF730B930C950D940BA982
:100A0000244802F03BFA4FF69F430B930C950D944C
:100A10000BA9214802F032FA43F6C8030B930C9558
:100A20000D940BA91D4802F029FA47F6E0730B93C9
:100A30000C950D940BA91A4802F020FA7C230B9315
:100A40000C950D940BA9174802F018FA01230B938B
:100A50000C950D940BA9144802F010FA4FF4F863AA
:100A60000B930C950D940BA9104802F007FA4FF464
:100A700040630B930C950D940BA90D4802F0FEF901
:100A800011B030BD0044025800200258000C02583A
:100A900000080258000002580004025800180258CA
:100AA000001C025800100258002802580014025876
:100AB0000024025808B51748174B03604FF416532B
:100AC000436000238360C360036108224261836145
:100AD000C36103624362836205F0BFFC70B9002109
:100AE0000C4805F08DFD60B900210A4805F0ADFD08
:100AF00050B9084805F065FD48B908BDFFF7C4FDC9
:100B0000EDE7FFF7C1FDEFE7FFF7BEFDF1E7FFF708
:100B1000BBFDF2E7280400200050004008B517484C
:100B2000174B03604FF4E133436000238360C360DD
:100B300003610C2242618361C36103624362836289
:100B400005F08BFC70B900210C4805F059FD60B927
:100B500000210A4805F079FD50B9084805F031FD3B
:100B600048B908BDFFF790FDEDE7FFF78DFDEFE712
:100B7000FFF78AFDF1E7FFF787FDF2E79403002016
:100B80000044004008B51748174B03604FF4E133A9
:100B9000436000238360C36003610C224261836170
:100BA000C36103624362836205F057FC70B90021A0
:100BB0000C4805F025FD60B900210A4805F045FD07
:100BC00050B9084805F0FDFC48B908BDFFF75CFDC9
:100BD000EDE7FFF759FDEFE7FFF756FDF1E7FFF708
:100BE00053FDF2E7BC0400200014014070B5BEB014
:100BF0000446002139913A913B913C913D91C022AC
:100C000008A80BF0B3FB2368854A934208D0854AB5
:100C1000934257D0844A934200F0AA803EB070BD00
:100C200002220023CDE9082308A801F0D7F9002803
:100C300045D17E4BD3F8E82042F48012C3F8E82077
:100C4000D3F8E82002F480120192019AD3F8E02050
:100C500042F00402C3F8E020D3F8E02002F00402DE
:100C60000292029AD3F8E02042F00802C3F8E02092
:100C7000D3F8E03003F008030393039B4FF4805351
:100C8000399302243A9400253B953C9408263D96DE
:100C900039A9674802F0F2F8042339933A943B9556
:100CA0003C943D9639A9634802F0E8F82A460521AC
:100CB000352000F0EBF9352000F01EFAAEE7FFF723
:100CC000E3FCB6E702220023CDE9082308A801F0DF
:100CD00085F9002846D1554BD3F8E82042F400327C
:100CE000C3F8E820D3F8E82002F400320492049A12
:100CF000D3F8E02042F00802C3F8E020D3F8E03057
:100D000003F008030593059B6023399302233A936C
:100D100000253B953C9307233D9339A9454802F0B4
:100D2000ADF84548454B03602B2343608560C560A3
:100D30004FF48063036145618561C5614FF44033C1
:100D40000362456202F0C4FB78B93B4BC4F88030C3
:100D50009C6300220521262000F098F9262000F04F
:100D6000CBF95BE7FFF790FCB5E7FFF78DFCECE70D
:100D700001220023CDE9082308A801F02FF900285B
:100D800047D12A4BD3F8F02042F02002C3F8F020DC
:100D9000D3F8F02002F020020692069AD3F8E02061
:100DA00042F04002C3F8E020D3F8E03003F0400303
:100DB0000793079B4FF48443399302233A9300250A
:100DC0003B953C9307233D9339A91D4802F056F803
:100DD0001C481D4B0360472343608560C5604FF48A
:100DE0008063036145618561C5614FF440330362EF
:100DF000456202F06DFB78B9124BC4F880309C63F9
:100E000000220521472000F041F9472000F074F945
:100E100004E7FFF739FCB4E7FFF736FCECE700BF67
:100E200000500040004400400014014000440258BB
:100E300000080258000C0258A402002010000240D2
:100E4000001802581C03002028000240FEE7FEE7BD
:100E5000FEE7FEE7FEE7704708B5024803F02EF90B
:100E600008BD00BFA402002008B5024803F026F91F
:100E700008BD00BF1C03002008B5024806F042FC74
:100E800008BD00BFB805002008B5024806F03AFCCE
:100E900008BD00BFB805002008B5024803F0FBFEFE
:100EA00008BD00BF380B002008B5024804F084FCE0
:100EB00008BD00BF9403002008B5024804F07CFC84
:100EC00008BD00BF2804002008B5024804F074FCE7
:100ED00008BD00BFBC04002000B583B00A4BD3F8A6
:100EE000F42042F00202C3F8F420D3F8F43003F007
:100EF00002030193019B00220F216FF0010000F01B
:100F0000C5F803B05DF804FB0044025808B5084872
:100F1000084B036000230371437143618361012324
:100F2000036205F0DFFB00B908BDFFF7ADFBFBE78F
:100F300050050020004C025802680A4B9A4200D02B
:100F4000704782B0A3F50063D3F8E02042F400229A
:100F5000C3F8E020D3F8E03003F400230193019BB1
:100F600002B07047004C025808B50648064B0360B3
:100F70000023436005F032FC00B908BDFFF784FB95
:100F8000FBE700BF740500200018024810B5B2B09E
:100F90000446C022002102A80BF0E8F922680F4B9A
:100FA0009A4201D032B010BD4FF400320023CDE997
:100FB000022302A801F012F868B9094BD3F8DC202B
:100FC00042F04002C3F8DC20D3F8DC3003F04003E9
:100FD0000193019BE6E7FFF757FBEEE70018024895
:100FE0000044025808B50A480A4B036000234360D6
:100FF0007F228260FF22C26003618361C36143611B
:1010000005F090FC00B908BDFFF73EFBFBE700BF11
:10101000880500200040005810B5B0B00446C0223A
:10102000002168460BF0A2F922680D4B9A4201D0CC
:1010300030B010BD4FF480020023CDE900234FF4FF
:1010400000732D93684600F0C9FF28B9054A136F55
:1010500043F400431367EBE7FFF716FBF6E700BF27
:1010600000400058004402580649CB6823F4E0636E
:101070001B041B0C000200F4E0600343024A1A4305
:10108000CA60704700ED00E00000FA0500B5174B9C
:10109000DB68C3F30223C3F1070CBCF1040F28BFC4
:1010A0004FF0040C03F1040EBEF1060F14D9033BFC
:1010B0004FF0FF3E0EFA0CFC21EA0C0199400EFAAB
:1010C00003F322EA03031943002807DB0901C9B22D
:1010D000074B19545DF804FB0023E9E700F00F000B
:1010E0000901C9B2034B1954F4E700BF00ED00E059
:1010F00000E400E014ED00E0002807DB00F01F0230
:10110000400901239340024A42F82030704700BF53
:1011100000E100E0BFF35F8F044B5A6A22F4803293
:101120005A620022C3F89420704700BF00ED00E02F
:1011300040F00100054BC3F894005A6A42F4803233
:101140005A62BFF34F8FBFF36F8F704700ED00E01F
:101150004378144AC2F89830D2F8A03023F0010343
:10116000C2F8A0304368C2F89C30017BC37A1B06EA
:1011700043EA0173817A43EAC143417B43EA8143F5
:10118000817B43EA4143C17B43EA0143417A43EA1D
:101190000123017A43EA410301780B43C2F8A030EE
:1011A000704700BF00ED00E0002800F0398338B53B
:1011B0000446036813F0010F25D0944A136903F025
:1011C0003803926A102B15D0182B0FD06368B3F533
:1011D000803F3FD0002B53D18C4B1A6822F48032D1
:1011E0001A601A6822F480221A6038E002F00302C2
:1011F000022AEBD1854B1B6813F4003F03D06368D0
:10120000002B00F00F83236813F0020F00F0A18081
:101210007E4A1369926A13F038035AD0182B55D0BE
:10122000E368002B00F0DE8078490A6822F019029A
:1012300013430B6003F044FB0546744B1B6813F02B
:10124000040F40F0AD8003F03BFB401B0228F4D9B3
:101250000320EEE26D4A136843F480331360636841
:101260002BB303F02DFB0546684B1B6813F4003FBE
:10127000C9D103F025FB401B6428F5D90320D8E22F
:10128000B3F5A02F09D0614B1A6822F480321A609E
:101290001A6822F480221A60E1E75C4B1A6842F473
:1012A00080221A601A6842F480321A60D7E703F08D
:1012B00007FB0546554B1B6813F4003FA3D003F012
:1012C000FFFA401B6428F5D90320B2E212F0030FA5
:1012D000A6D14E4B1B6813F0040F03D0E368002B1C
:1012E00000F0A282494A136823F01903E1680B4316
:1012F000136003F0E5FA0546444B1B6813F0040F36
:1013000006D103F0DDFA401B0228F5D9032090E254
:1013100003F0F0FA41F20303984212D82269402AFE
:1013200007D03A494B6823F47C3343EA02334B60DD
:101330000FE0364A536823F47C3343F400335360A0
:1013400007E0324A536823F0FE43216943EA016310
:101350005360236813F0100F00F088802B4A136944
:1013600003F03803926A082B56D0182B50D0E3694B
:10137000002B00F0B880254A136843F08003136007
:1013800003F09EFA0546214B1B6813F4807F40F062
:10139000888003F095FA401B0228F4D9032048E224
:1013A00003F0A8FA41F20303984212D82269402AB6
:1013B00007D016494B6823F47C3343EA02334B6071
:1013C000C7E7124A536823F47C3343F40033536075
:1013D000BFE70E4A536823F0FE43216943EA0163E5
:1013E0005360B6E7094A136823F00103136003F062
:1013F00067FA0546054B1B6813F0040FA9D003F0EC
:101400005FFA401B0228F5D9032012E2004402587B
:1014100002F00302012AAAD1A14B1B6813F4807FBA
:1014200003D0E369802B40F0018203F063FA41F2BC
:101430000303984212D8226A202A07D098494B68A1
:1014400023F0F84343EA82634B600FE0944A536809
:1014500023F0F84343F08043536007E0904AD36899
:1014600023F07C53216A43EA0163D360236813F0BD
:10147000080F60D06369002B49D0894A536F43F04D
:101480000103536703F01CFA0546854B5B6F13F0AD
:10149000020F50D103F014FA401B0228F5D90320A3
:1014A000C7E103F027FA41F20303984212D8226AF7
:1014B000202A07D07A494B6823F0F84343EA826335
:1014C0004B60D3E7764A536823F0F84343F08043F8
:1014D0005360CBE7724AD36823F07C53216A43EA16
:1014E0000163D360C2E76E4A136823F08003136080
:1014F00003F0E6F905466A4B1B6813F4807FB5D00C
:1015000003F0DEF9401B0228F5D9032091E1644A7B
:10151000536F23F00103536703F0D2F90546604B84
:101520005B6F13F0020F06D003F0CAF9401B0228CC
:10153000F5D903207DE1236813F0200F29D0A3699A
:101540009BB1574A136843F48053136003F0B8F912
:101550000546534B1B6813F4005F1AD103F0B0F932
:10156000401B0228F5D9032063E14D4A136823F498
:101570008053136003F0A4F90546494B1B6813F42C
:10158000005F06D003F09CF9401B0228F5D9032028
:101590004FE1236813F0040F21D1636A002B00F0A0
:1015A00047813F4A126902F03802182A00F0EE80A3
:1015B000022B79D03A4A136823F08073136003F04A
:1015C0007FF90446364B1B6813F0007F00F0DC8087
:1015D00003F076F9001B0228F4D9032029E1314AEF
:1015E000136843F48073136003F06AF905462D4BCA
:1015F0001B6813F4807F06D103F062F9401B642856
:10160000F5D9032015E1A368012B0AD00BBB244BAD
:101610001A6F22F001021A671A6F22F004021A6789
:1016200004E01F4A136F43F001031367A36833B349
:1016300003F046F905461A4B1B6F13F0020FACD1AD
:1016400003F03EF9401B41F288339842F3D903205E
:10165000EFE0052B09D0124B1A6F22F001021A6736
:101660001A6F22F004021A67E0E70D4B1A6F42F07E
:1016700004021A671A6F42F001021A67D6E703F0F4
:101680001FF90546064B1B6F13F0020F85D003F0C0
:1016900017F9401B41F288339842F3D90320C8E080
:1016A0000044025800480258694A136823F08073C6
:1016B000136003F005F90546654B1B6813F0007FC6
:1016C00006D003F0FDF8401B0228F5D90320B0E056
:1016D0005F4B996A5F4A0A40A16AE06A41EA0011D9
:1016E0000A439A62226B013AC2F30802616B013924
:1016F000490289B20A43A16B0139090401F4FE01D0
:101700000A43E16B0139090601F0FE410A431A63FD
:10171000DA6A22F00102DA62596B4F4A0A40A16C80
:1017200042EAC1025A63DA6A22F00C02216C0A43CF
:10173000DA62DA6A22F00202616C0A43DA62DA6A79
:1017400042F48032DA62DA6A42F40032DA62DA6A49
:1017500042F48022DA62DA6A42F00102DA621A683E
:1017600042F080721A6003F0ABF80446384B1B68F5
:1017700013F0007F06D103F0A3F8001B0228F5D96F
:10178000032056E0002054E0002052E0304A916AE5
:10179000106B012B4ED001F00303A26A93424BD190
:1017A000C1F30511E36A994248D1C0F30802236BE3
:1017B000013B9A4244D1C0F34622636B013B9A42FB
:1017C00040D1C0F30642A36B013B9A423CD1C0F327
:1017D0000660E36B013B984238D11D4B5B6BC3F352
:1017E000CC03A26C9A4201D1002022E0184AD36AAD
:1017F00023F00103D36203F063F8054603F060F8B9
:10180000A842FBD0124A516B134B0B40A16C43EA28
:10181000C1035363D36A43F00103D362002008E09D
:1018200001207047012004E0012002E0012000E0D7
:10183000002038BD0120FCE70120FAE70120F8E78D
:101840000120F6E70120F4E70120F2E70120F0E7AC
:10185000004402580CFCFFFF0700FFFF744B1B699C
:1018600003F03803102B00F0DE80182B10D00BB1E2
:10187000704870476E4B1B6813F0200F00F0D58046
:101880006B4B1868C0F3C1006B4B23FA00F0704734
:1018900010B4674A916A01F00301946AC4F3051019
:1018A000D36A03F0010C536BC3F3CC030CFB03F3BB
:1018B00007EE903AF8EE677A14F47C7F00F093809C
:1018C000012965D0022900F09180E1B107EE100AEC
:1018D000F8EE476A9FED596A86EE267A544B1B6BE9
:1018E000C3F3080306EE903AF8EE666A9FED546A79
:1018F00067EE867A76EEA77AF7EE006A77EEA67A3A
:1019000027EE277A60E0136813F0200F23D01146EA
:101910001268C2F3C102484BD34007EE103AF8EE0A
:10192000476A07EE100AB8EE476A86EE867A0B6BB6
:10193000C3F3080306EE903AF8EE666A9FED406A3C
:1019400067EE867A76EEA77AF7EE006A77EEA67AE9
:1019500027EE277A38E007EE100AF8EE476A9FED87
:10196000396A86EE267A324B1B6BC3F3080306EE08
:10197000903AF8EE666A9FED326A67EE867A76EE06
:10198000A77AF7EE006A77EEA67A27EE277A1BE0B1
:1019900007EE100AF8EE476A9FED286A86EE267A6F
:1019A000234B1B6BC3F3080306EE903AF8EE666A0E
:1019B0009FED236A67EE867A76EEA77AF7EE006AE5
:1019C00077EEA67A27EE277A194B1B6BC3F34623D3
:1019D000013307EE903AF8EE677AC7EE276AFCEE1D
:1019E000E67A17EE900A5DF8044B704707EE100A8E
:1019F000F8EE476A9FED146A86EE267A0C4B1B6B55
:101A0000C3F3080306EE903AF8EE666A9FED0C6A9F
:101A100067EE867A76EEA77AF7EE006A77EEA67A18
:101A200027EE277AD0E7094870470348704700BF80
:101A30000044025800093D000090D0030024744A7D
:101A4000000000390024744C20BCBE4B40787D015E
:101A5000002800F0328170B50D4604469B4B1B6890
:101A600003F00F038B420BD2984A136823F00F0345
:101A70000B431360136803F00F038B4240F01F8188
:101A8000236813F0040F0CD02269914B9B6903F07B
:101A900070039A4205D98E498B6923F070031A436B
:101AA0008A61236813F0080F0CD06269884BDB69E8
:101AB00003F070039A4205D98549CB6923F070037E
:101AC0001A43CA61236813F0100F0CD0A269804B2F
:101AD000DB6903F4E0639A4205D97D49CB6923F4BD
:101AE000E0631A43CA61236813F0200F0CD0E26947
:101AF000774B1B6A03F070039A4205D974490B6A4D
:101B000023F070031A430A62236813F0020F0CD00B
:101B1000E2686F4B9B6903F00F039A4205D96C4949
:101B20008B6923F00F031A438A61236813F0010FB6
:101B300041D0674A936923F47063A1680B439361B2
:101B40006368022B0AD0032B27D0012B2CD0604ACC
:101B5000126812F0040F06D10120ADE0126812F4F1
:101B6000003F00F0AE805A490A6922F00702134391
:101B70000B6102F0A5FE0646554B1B6903F03803C6
:101B80006268B3EBC20F16D002F09AFE801B41F2DE
:101B900088339842F0D903208EE04D4A126812F043
:101BA000007FE0D1012087E0494A126812F4807F6B
:101BB000D9D1012080E0236813F0020F0CD0E26835
:101BC000434B9B6903F00F039A4205D240498B694E
:101BD00023F00F031A438A613C4B1B6803F00F0389
:101BE000AB420AD9394A136823F00F032B43136021
:101BF000136803F00F03AB4265D1236813F0040FA1
:101C00000CD02269324B9B6903F070039A4205D2D3
:101C10002F498B6923F070031A438A61236813F0FC
:101C2000080F0CD062692A4BDB6903F070039A42FB
:101C300005D22749CB6923F070031A43CA61236890
:101C400013F0100F0CD0A269214BDB6903F4E063A1
:101C50009A4205D21E49CB6923F4E0631A43CA6154
:101C6000236813F0200F0CD0E269194B1B6A03F0B4
:101C700070039A4205D216490B6A23F070031A4387
:101C80000A62FFF7EBFD12498B69C3F30323114A84
:101C9000D35C03F01F03D8408B6903F00F03D35CC0
:101CA00003F01F0320FA03F30B4A13600B4B186079
:101CB0000B4B186807F0EAFC70BD0120704701204B
:101CC000FAE70120F8E70120F6E700BF0020005204
:101CD0000044025810CE00080C000020080000202C
:101CE0000400002008B5FFF7B9FD0B4A9369C3F360
:101CF00003230A49CB5C03F01F0320FA03F3926924
:101D000002F00F02885C00F01F0023FA00F0044A82
:101D10001060044A136008BD0044025810CE000849
:101D20000C0000200800002008B5FFF7DBFF054B82
:101D3000DB69C3F30213044AD35C03F01F03D840EA
:101D400008BD00BF0044025810CE000808B5FFF7D8
:101D5000C9FF054BDB69C3F30223044AD35C03F0DC
:101D60001F03D84008BD00BF0044025810CE000831
:101D70003F230360114B1A6902F0070242609A691F
:101D800002F4706282609A6902F00F02C2609A697E
:101D900002F070020261DA6902F070024261DA69EF
:101DA00002F4E06282611B6A03F07003C361044BBA
:101DB0001B6803F00F030B60704700BF004402581C
:101DC00000200052404B9B6A03F00303032B79D0A1
:101DD00070B505460E463C4A136823F080631360D5
:101DE00002F06EFD0446384B1B6813F0006F06D0FE
:101DF00002F066FD031B022BF5D9032070BD324BA8
:101E00009A6A22F47C32296842EA01329A626A684C
:101E1000013AC2F30802A9680139490289B20A43AA
:101E2000E9680139090401F4FE010A43296901390D
:101E3000090601F0FE410A439A63DA6A22F0C00201
:101E400069690A43DA62DA6A22F02002A9690A4360
:101E5000DA62DA6A22F01002DA62D96B1B4A0A40AF
:101E6000E96942EAC102DA63DA6A42F01002DA6230
:101E7000C6B91A46DB6A43F40023D362124A1368D8
:101E800043F08063136002F01BFD04460E4B1B6899
:101E900013F0006F14D102F013FD001B0228F5D9D6
:101EA0000320ABE7012E05D0074AD36A43F40013A1
:101EB000D362E3E7044AD36A43F48013D362DDE7D5
:101EC00000209BE701207047004402580700FFFFF5
:101ED000404B9B6A03F00303032B79D070B5054692
:101EE0000E463C4A136823F08053136002F0E8FC6E
:101EF0000446384B1B6813F0005F06D002F0E0FC8C
:101F0000031B022BF5D9032070BD324B9A6A22F0D5
:101F10007C72296842EA01529A626A68013AC2F305
:101F20000802A9680139490289B20A43E9680139FE
:101F3000090401F4FE010A4329690139090601F087
:101F4000FE410A431A64DA6A22F4406269690A436C
:101F5000DA62DA6A22F40072A9690A43DA62DA6A9A
:101F600022F48072DA62596C1B4A0A40E96942EA3B
:101F7000C1025A64DA6A42F48072DA62C6B91A4659
:101F8000DB6A43F48003D362124A136843F0805340
:101F9000136002F095FC04460E4B1B6813F0005FC3
:101FA00014D102F08DFC001B0228F5D90320ABE709
:101FB000012E05D0074AD36A43F08073D362E3E76A
:101FC000044AD36A43F40003D362DDE700209BE7B1
:101FD00001207047004402580700FFFFF8B504468F
:101FE000036813F0006F30D0836EB3F5001F26D066
:101FF0000ED8EBB1B3F5801F07D102210830FFF7EF
:10200000E1FE054645B12E4621E0012635461EE09B
:10201000B3F5401F09D10025984A136D23F44013EE
:10202000A16E0B431365002611E0012635460EE034
:10203000924AD36A43F40033D3620025ECE70221CD
:102040002830FFF745FF0546DCE7002635462368C4
:1020500013F4807F14D0A36D042B32D8DFE803F093
:1020600003232A080800854AD36A43F40033D36265
:1020700055BB824A136D23F00703A16D0B43136513
:10208000236813F4007F31D0E36D802B4CD020D82F
:10209000002B43D0402B19D1002104F10800FFF799
:1020A00091FE05461AE0002104F10800FFF78AFEC0
:1020B0000546DDE7002104F12800FFF709FF05468A
:1020C000D6E701263546DBE72E46D9E70126354619
:1020D0000CE0C02B02D0B3F5807F1CD15DBB674AFA
:1020E000136D23F4E073E16D0B431365236813F460
:1020F000806F46D0D4F8A830B3F5800F39D01FD800
:102100008BB3B3F5001F18D1002104F10800FFF7CD
:1021100059FE05461AE001263546E7E7574AD36AD5
:1021200043F40033D362D9E7002104F12800FFF71C
:10213000CFFE0546D2E72E46D8E70126354620E0F9
:10214000B3F5C00F02D0B3F5000F09D1C5B94B4AA2
:10215000936D23F46003D4F8A8100B43936510E04B
:10216000012635460DE0454AD36A43F40033D36275
:10217000ECE7002104F12800FFF7AAFE0546E5E799
:102180002E46236813F4006F24D0D4F8AC30B3F19A
:10219000007F42D00ED8002B39D0B3F1807F06D11A
:1021A000002104F10800FFF70DFE054608E00126B6
:1021B00035460FE0B3F1407F02D0B3F1806F23D1F9
:1021C000002D31D12D4A936D23F0E063D4F8AC108B
:1021D0000B439365236813F0007F2ED0E36C202B14
:1021E00040D026D833B1102B20D1244AD36A43F4EF
:1021F0000033D362002D3CD1204AD36C23F030034E
:10220000E16C0B43D36418E001263546E2E71B4A34
:10221000D36A43F40033D362D2E7002104F12800EB
:10222000FFF756FE0546CBE72E46D3E70126354697
:1022300003E0302BDED001263546236813F4805F9F
:102240002DD0236EB3F5005F4FD019D8002B46D0A8
:10225000B3F5805F0FD1002104F10800FFF7B2FD54
:10226000054613E0022104F10800FFF7ABFD054627
:10227000C0E72E46E1E70126354610E0004402584B
:10228000B3F5405F02D0B3F5804F25D1002D33D197
:10229000774A136D23F4E043216E0B4313652368E3
:1022A00013F4005F38D0636EB3F5003F53D028D8E5
:1022B00043B1B3F5803F21D1012104F10800FFF7BC
:1022C00081FD0546002D4DD1694A136D23F4E023AD
:1022D000616E0B4313651FE001263546DFE7644A54
:1022E000D36A43F40033D362D0E7002104F128001D
:1022F000FFF7EEFD0546C9E72E46D0E70126354635
:102300000AE0B3F5802FDDD0B3F5A02FDAD0B3F516
:10231000403FD7D001263546236813F4804F31D093
:10232000D4F8B030B3F1005F45D020D843B1B3F159
:10233000805F19D1012104F10800FFF743FD054634
:10234000002D3FD14A4A936D23F0E043D4F8B010FA
:102350000B43936516E0012104F12800FFF7B8FD57
:102360000546AFE72E46D7E7012635460AE0B3F12A
:10237000804FE5D0B3F1A04FE2D0B3F1405FDFD0A2
:1023800001263546236813F4004F09D0236FB3F1BB
:10239000805F19D0B3F1005F24D0D3B10126354658
:1023A000236813F0807F33D0A36C032B5BD8DFE866
:1023B00003F027225327012104F12800FFF788FDAD
:1023C0000546BDE72E46DDE7294AD36A43F40033CC
:1023D000D36275B9264A136D23F04053216F0B4326
:1023E0001365DDE7012104F10800FFF7EBFC05466A
:1023F000EFE72E46D4E71E4AD36A43F40033D36294
:10240000A5BB1B4AD36C23F00303A16C0B43D3641D
:10241000236813F4800F2DD1236813F0010F00F00F
:10242000A580E36F282B00F29F80DFE803F08D9DED
:102430009D9D9D9D9D9D879D9D9D9D9D9D9D969DE9
:102440009D9D9D9D9D9D8D9D9D9D9D9D9D9D8D9DDC
:102450009D9D9D9D9D9D8D00022104F10800FFF72B
:10246000B1FC0546CCE701263546D1E72E46CFE73D
:1024700000440258914A136843F48073136002F0D9
:102480001FFA07468D4B1B6813F4807F05D102F0BD
:1024900017FAC01B6428F5D90325002D4AD1884BB3
:1024A0001B6FD4F8B420534013F4407F0CD0844BFE
:1024B0001A6F22F44072196F41F480311967196F55
:1024C00021F4803119671A67D4F8B430B3F5807FEE
:1024D00015D08DBBD4F8B43003F44072B2F5407F10
:1024E0001ED0774A136923F47C53136174490B6F30
:1024F000D4F8B420C2F30B0213430B678CE702F04D
:10250000DFF907466E4B1B6F13F0020FE1D102F0AB
:10251000D7F9C01B41F288339842F3D90325D8E795
:102520006748026922F47C52664901EA1313134397
:102530000361DBE72E466FE72E466DE7012104F1CC
:102540000800FFF73FFC0546E5B95D4A536D23F0EF
:102550003803E16F0B43536508E0012104F12800C3
:10256000FFF7B6FC0546EFE701263546236813F072
:10257000020F17D0A36F052B28D8DFE803F00B0557
:10258000200B0B0B2E46F1E7012104F10800FFF7A9
:1025900019FC0546EDB94A4A536D23F00703A16FB4
:1025A0000B435365236813F0040F23D0D4F8943001
:1025B000052B45D8DFE803F0150F3D151515012152
:1025C00004F12800FFF784FC0546E3E701263546C1
:1025D000E8E72E46E6E7012104F10800FFF7F2FBE9
:1025E000054685BB364A936D23F00703D4F8941053
:1025F0000B439365236813F0200F34D0D4F8903048
:10260000B3F1005F4ED023D843B1B3F1805F1CD14A
:10261000002104F10800FFF7D5FB0546002D48D145
:10262000274A536D23F0E043D4F890100B435365D1
:1026300019E0012104F12800FFF74AFC0546D0E724
:1026400001263546D6E72E46D4E7012635460AE070
:10265000B3F1804FE2D0B3F1A04FDFD0B3F1405FD0
:10266000DCD001263546236813F0400F37D0D4F86C
:102670009C30B3F5006F53D026D843B1B3F5806FCB
:1026800019D1002104F10800FFF79CFB0546002D3D
:102690004DD10B4A936D23F4E053D4F89C100B43B7
:1026A00093651CE0022104F12800FFF711FC0546A8
:1026B000B4E72E46D7E70126354610E00048025819
:1026C00000440258CFFFFF00B3F5805FDFD0B3F5C1
:1026D000A05FDCD0B3F5406FD9D001263546236822
:1026E00013F0800F33D0D4F8A030B3F5804F00F052
:1026F000A38021D843B1B3F5005F1AD1002104F1C2
:102700000800FFF75FFB0546002D40F09C80814AE2
:10271000936D23F46043D4F8A0100B43936516E047
:10272000022104F12800FFF7D3FB0546AFE72E4650
:10273000D5E7012635460AE0B3F5004FE4D0B3F5FE
:10274000204FE1D0B3F5C04FDED0012635462368D7
:1027500013F0080F0CD0D4F88430B3F5805F74D038
:102760006C4A536D23F44053D4F884100B435365E3
:10277000236813F0100F0CD0D4F89830B3F5807F95
:102780006CD0644A936D23F44073D4F898100B43D3
:102790009365236813F4002F0BD0D4F8A430B3F55D
:1027A000803F74D0B3F5003F67D0002B5FD0012687
:1027B0003546236813F4802F0CD0D4F88830B3F555
:1027C000001F7CD0B3F5401F6FD0B3F5801F67D0DA
:1027D00001263546236813F4803F08D0236D002B73
:1027E00076D0B3F5803F00F081800126354623681E
:1027F00013F0005F40F08380236813F4003F00F083
:102800008E80D4F88030B3F5807F00F0EC8040F209
:102810008380B3F5007F03D0B3F5407F40F0E180C3
:10282000002D40F0E6803B4A536D23F44073D4F80A
:1028300080100B43536572E0022104F12800FFF77A
:1028400047FB054660E72E4681E7022104F1280098
:10285000FFF73EFB002883D0012681E7022104F127
:102860002800FFF735FB00288BD0012689E70021DF
:1028700004F10800FFF7A6FA05467DB9254A936DD5
:1028800023F44033D4F8A4100B43936591E702215D
:1028900004F12800FFF71CFB0546EEE72E4688E70B
:1028A0001C4AD36A43F40033D3627DB9194A536D8D
:1028B00023F44013D4F888100B4353658AE70121B1
:1028C00004F12800FFF704FB0546EEE72E4681E7FA
:1028D000104AD36A43F40033D36275B90D4AD36CFE
:1028E00023F48033216D0B43D36480E7022104F18C
:1028F0000800FFF767FA0546EFE72E4677E7022163
:1029000004F12800FFF7E4FA00283FF475AF012630
:1029100072E700BF00440258002B81D001262368D3
:1029200013F4801F06D04F4A136D23F00043616FEC
:102930000B431365236813F0805F07D0494A13697E
:1029400023F48043D4F8B8100B431361236813F4C5
:10295000001F06D0434A136D23F08073E16E0B43D2
:102960001365236813F0804F09D03E4B1A6922F497
:1029700000421A611A69D4F8BC100A431A6123682C
:10298000002B06DA374AD36C23F04053616D0B43BA
:10299000D364236813F4000F07D0324A536D23F435
:1029A0004003D4F88C100B435365636813F0010F98
:1029B00021D1636813F0020F26D1636813F0040F6E
:1029C0002BD1636813F0080F30D1636813F0100F38
:1029D00035D1636813F0200F3AD106B10126304695
:1029E000F8BD01269BE71F4AD36A43F40033D36244
:1029F00016E72E4693E7002104F10800FFF7E2F9FD
:102A00000028D6D00646D4E7012104F10800FFF7DC
:102A1000D9F90028D1D00646CFE7022104F10800F9
:102A2000FFF7D0F90028CCD00646CAE7002104F110
:102A30002800FFF74DFA0028C7D00646C5E7012158
:102A400004F12800FFF744FA0028C2D00646C0E788
:102A5000022104F12800FFF73BFA0028BDD006460A
:102A6000BBE700BF0044025808B5FFF73BF9054B30
:102A70001B6AC3F30213044AD35C03F01F03D8405C
:102A800008BD00BF0044025810CE000810B5774AB8
:102A9000916A946AC4F3053ED36AC3F3001CD36BF6
:102AA000C3F3CC030CFB03F314F47C3F00F0D88099
:102AB00001F0030107EE903AF8EE677A012965D03C
:102AC000022900F0B080E1B107EE10EAB8EE477AD3
:102AD0009FED676AC6EE076A644B9B6BC3F30803FE
:102AE00007EE103AB8EE477A9FED626A67EE867A93
:102AF00077EE277AB7EE007A77EE877A66EEA76AE6
:102B000060E0136813F0200F23D011461268C2F35F
:102B1000C102594BD34007EE103AB8EE477A06EEA1
:102B200090EAB8EE666AC7EE066A8B6BC3F30803D9
:102B300007EE103AB8EE477A9FED4E6A67EE867A56
:102B400077EE277AB7EE007A77EE877A66EEA76A95
:102B500038E007EE10EAB8EE477A9FED486AC6EE15
:102B6000076A424B9B6BC3F3080307EE103AB8EEBB
:102B7000477A9FED406A67EE867A77EE277AB7EE5E
:102B8000007A77EE877A66EEA76A1BE007EE10EA16
:102B9000B8EE477A9FED366AC6EE076A334B9B6BF9
:102BA000C3F3080307EE103AB8EE477A9FED316A97
:102BB00067EE867A77EE277AB7EE007A77EE877A35
:102BC00066EEA76A294A936BC3F3462307EE103AD1
:102BD000B8EE477AB7EE006A37EE067AC6EE877A25
:102BE000FCEEE77AC0ED007A936BC3F3064307EE81
:102BF000103AB8EE477A37EE067AC6EE877AFCEEE0
:102C0000E77AC0ED017A936BC3F3066307EE903A5F
:102C1000F8EE677A77EE867A86EEA77ABCEEC77A08
:102C200080ED027A10BD07EE10EAB8EE477A9FED0C
:102C3000146AC6EE076A0D4B9B6BC3F3080307EEDD
:102C4000103AB8EE477A9FED0B6A67EE867A77EE18
:102C5000277AB7EE007A77EE877A66EEA76AB1E751
:102C60000023036043608360DCE700BF0044025838
:102C70000024744A000000390090D0030024744CF2
:102C800020BCBE4B10B5774A916A946AC4F3055EC6
:102C9000D36AC3F3002C536CC3F3CC030CFB03F3D4
:102CA00014F07C7F00F0D88001F0030107EE903A29
:102CB000F8EE677A012965D0022900F0B080E1B111
:102CC00007EE10EAB8EE477A9FED676AC6EE076A2C
:102CD000644B1B6CC3F3080307EE103AB8EE477A57
:102CE0009FED626A67EE867A77EE277AB7EE007A12
:102CF00077EE877A66EEA76A60E0136813F0200F1C
:102D000023D011461268C2F3C102594BD34007EEDB
:102D1000103AB8EE477A06EE90EAB8EE666AC7EE69
:102D2000066A0B6CC3F3080307EE103AB8EE477A55
:102D30009FED4E6A67EE867A77EE277AB7EE007AD5
:102D400077EE877A66EEA76A38E007EE10EAB8EE0B
:102D5000477A9FED486AC6EE076A424B1B6CC3F385
:102D6000080307EE103AB8EE477A9FED406A67EE27
:102D7000867A77EE277AB7EE007A77EE877A66EE74
:102D8000A76A1BE007EE10EAB8EE477A9FED366AB5
:102D9000C6EE076A334B1B6CC3F3080307EE103A09
:102DA000B8EE477A9FED316A67EE867A77EE277A3A
:102DB000B7EE007A77EE877A66EEA76A294A136C37
:102DC000C3F3462307EE103AB8EE477AB7EE006A2F
:102DD00037EE067AC6EE877AFCEEE77AC0ED007A27
:102DE000136CC3F3064307EE103AB8EE477A37EE9A
:102DF000067AC6EE877AFCEEE77AC0ED017A136CAC
:102E0000C3F3066307EE903AF8EE677A77EE867AB8
:102E100086EEA77ABCEEC77A80ED027A10BD07EE87
:102E200010EAB8EE477A9FED146AC6EE076A0D4BBA
:102E30001B6CC3F3080307EE103AB8EE477A9FED18
:102E40000B6A67EE867A77EE277AB7EE007A77EE2E
:102E5000877A66EEA76AB1E7002303604360836068
:102E6000DCE700BF004402580024744A0000003927
:102E70000090D0030024744C20BCBE4BF0B583B04E
:102E800000236BE085685E000324B44025EA040556
:102E9000CC68B4402C438460446824EA0C0C4C6831
:102EA000C4F300149C4044EA0C04446068E0DD086C
:102EB000083550F8256003F007044FEA840C0F240E
:102EC00004FA0CF426EA040E0C6904FA0CF444EA41
:102ED0000E0440F825406BE0092400E0002404FAC9
:102EE0000EF42C430CF1020C694D45F82C404FF0C8
:102EF000B0442568D44325EA02064F6817F4801FC2
:102F000001D042EA05064FF0B0452E606D6804EA34
:102F100005064F6817F4001F01D042EA05064FF07E
:102F2000B0456E60D5F8845004EA05064F6817F482
:102F3000003F01D042EA05064FF0B045C5F8846075
:102F4000D5F880502C404E6816F4803F01D042EAFC
:102F500005044FF0B042C2F8804001330A6832FAEB
:102F600003F400F092804FF0010C0CFA03FC1CEA11
:102F70000202F2D04C6804F00304013C012C81D918
:102F80004C6804F00304032C0CD0C4685D004FF0BF
:102F9000030C0CFA05FC24EA0C0C8C68AC4044EAE7
:102FA0000C04C4604C6804F00304022C3FF47FAFAF
:102FB00004684FEA430E4FF0030C0CFA0EFC24EAAF
:102FC0000C0C4C6804F0030404FA0EF444EA0C04FC
:102FD00004604C6814F4403FBFD02E4CD4F8F45039
:102FE00045F00205C4F8F450D4F8F44004F00204AB
:102FF0000194019C4FEA930C0CF10205244C54F807
:10300000255003F003044FEA840E0F2404FA0EF453
:1030100025EA0405204CA0423FF460AF04F580642B
:10302000A04222D004F58064A04220D004F5806440
:10303000A0421ED004F58064A0421CD004F5806438
:10304000A0421AD004F58064A04218D004F5806430
:10305000A04216D004F58064A04214D004F5806428
:10306000A0423FF439AF0A2439E7012437E70224AC
:1030700035E7032433E7042431E705242FE706244A
:103080002DE707242BE7082429E703B0F0BD00BF94
:103090000004005800440258000002580AB181613F
:1030A0007047090481617047F0B4876D0468664E0B
:1030B000664DAC4218BFB44242D01835AC423FD046
:1030C0001835AC423CD01835AC4239D01835AC423A
:1030D00036D01835AC4233D01835AC4230D005F577
:1030E0005675AC422CD01835AC4229D01835AC42BC
:1030F00026D01835AC4223D01835AC4220D0183534
:10310000AC421DD01835AC421AD01835AC4217D09D
:103110004F4DAC4214D01435AC4211D01435AC42F2
:103120000ED01435AC420BD01435AC4208D0143557
:10313000AC4205D01435AC4202D01435AC4207D1B4
:10314000446E856E6560C46E14B1046F456F656032
:1031500004683D4E3D4DAC4218BFB44252D01835C4
:10316000AC424FD01835AC424CD01835AC4249D0A7
:103170001835AC4246D01835AC4243D01835AC4275
:1031800040D005F55675AC423CD01835AC4239D02C
:103190001835AC4236D01835AC4233D01835AC4275
:1031A00030D01835AC422DD01835AC422AD0183565
:1031B000AC4227D0264E274DAC4218BFB44211D0A6
:1031C000254DAC420ED01435AC420BD01435AC4278
:1031D00008D01435AC4205D01435AC4202D01435B9
:1031E000AC4224D1C46D04F01F050124AC407C60C6
:1031F000046863608368402B20D00368996003688B
:10320000DA6014E0C46D04F01F0C3F2404FA0CF4DF
:10321000BC6005682C6824F480242C60046863601A
:103220008368402B05D0036899600368DA60F0BCBE
:10323000704703689A600368D960F8E703689A608A
:103240000368D960F3E700BF100002402800024085
:10325000085402581C540258305402580368274935
:10326000274A934218BF8B422FD0183293422CD05A
:103270001832934229D01832934226D01832934202
:1032800023D01832934220D0183293421DD002F539
:103290005672934219D01832934216D01832934284
:1032A00013D01832934210D0183293420DD01832F6
:1032B00093420AD01832934207D01832934204D076
:1032C00023F0FF038365806D704710B4D9B21039C5
:1032D0000C4AA2FB0142C2F302120B4CA25CC26573
:1032E0005F2907D9094A1A4004328265806D5DF86A
:1032F000044B7047054A1A408265F7E71000024008
:1033000028000240ABAAAAAADCC5000800FCFFFF07
:1033100083699BB9836A012B0AD0022B02D00BB1BF
:1033200000207047C36A13F0807F2AD100207047C5
:10333000C36AB3F1C07F26D000207047B3F5005FA9
:103340000AD0836A022B26D9032B26D1C36A13F035
:10335000807F24D100207047836A032B03D8DFE8E5
:1033600003F01404140A00207047C36A13F0807F2E
:103370000DD100207047C36AB3F1C07F09D000208F
:1033800070470120704701207047012070470120DD
:1033900070470120704701207047002070470120CE
:1033A0007047000003682249224A934218BF8B42AB
:1033B00028D01432934225D01432934222D01432B2
:1033C00093421FD0143293421CD01432934219D02E
:1033D0001432934216D0DAB2103A1749A1FB021206
:1033E000120916491944A8291FD9154B13449B00EB
:1033F0000366144B436602F01F02012303FA02F234
:1034000082667047DBB2083B0F4AA2FB03230F4AD8
:1034100002EB1312920002660D4A4266C3F30413D4
:10342000012202FA03F3836670470832DDE700BF2A
:10343000085402581C540258ABAAAAAAF0FBFDBFBC
:103440000082001080080240CDCCCCCC0096001643
:103450008058025801794A1E072A2CD830B40368D4
:10346000154D164CA34218BFAB4218D01434A342DA
:1034700015D01434A34212D01434A3420FD0143404
:10348000A3420CD01434A34209D01434A34206D072
:103490000B4B0B449B00C3660A4B036705E00A4BCA
:1034A0000B449B00C366094B0367012303FA02F236
:1034B000426730BC70477047085402581C54025889
:1034C0003F820010400902403F96001640590258C2
:1034D00070B5044601F0F4F9002C00F0B681054601
:1034E00023685349534A934218BF8B420CBF0122B1
:1034F000002250D030318B424DD018318B424AD00F
:1035000018318B4247D018318B4244D018318B424E
:1035100041D018318B423ED001F556718B423AD0E2
:1035200018318B4237D018318B4234D018318B424E
:1035300031D018318B422ED018318B422BD018311C
:103540008B4228D018318B4225D03B493B4A9342CD
:1035500018BF8B4200F03181394A934200F02D812F
:103560001432934200F029811432934200F02581F5
:103570001432934200F021811432934200F01D81F5
:103580001432934200F0198140236365032384F8C9
:10359000353001204AE0022184F83510002184F8FA
:1035A00034107ABB274A93422CD01832934229D048
:1035B0001832934226D01832934223D018329342C5
:1035C00020D0183293421DD002F55672934219D082
:1035D0001832934216D01832934213D018329342C5
:1035E00010D0183293420DD0183293420AD01832BC
:1035F000934207D01832934204D01A6822F0010295
:103600001A6003E01A6822F001021A6023681A683F
:1036100012F0010F18D001F053F9431B052BF5D917
:1036200020236365032384F83530012070BD00BF7B
:103630001000024028000240085402581C5402584E
:1036400030540258400002401A6881481040A16876
:10365000E2680A4321690A4361690A43A1690A438E
:10366000E1690A43216A0A430243616A042900F0BE
:1036700099807849086878490140B1F1005F11D319
:103680006168A1F12905A1F13F00032888BF052D3C
:1036900006D9A1F14700012802D94F39032901D8E1
:1036A00042F480121A602668756925F00705636A7E
:1036B0001D43042B08D1A36A1D43E36A23B12046AE
:1036C000FFF726FE002872D175612046FFF7C6FD80
:1036D000E36D03F01F023F239340836023685F493B
:1036E0005F4A934218BF8B4242D0183293423FD078
:1036F000183293423CD01832934239D01832934258
:1037000036D01832934233D01832934230D002F57B
:10371000567293422CD01832934229D018329342D9
:1037200026D01832934223D01832934220D0183238
:1037300093421DD0183293421AD01832934217D0B8
:10374000484A934214D01432934211D01432934217
:103750000ED0143293420BD01432934208D014325C
:10376000934205D01432934202D01432934213D1C3
:103770002046FFF717FEA368802B59D0236E2279CD
:103780001A60636EA26E5A606368013B072B52D9C0
:103790000023E3662367636700206065012384F8E4
:1037A000353043E7E16A206B01430A4361E7402378
:1037B0006365012084F8350038E7022284F835205B
:1037C000002284F834201A6827491140A268402A50
:1037D0002CD0802A27D00022E06842EAD00220695B
:1037E00042EAD002606942EAD002A06942EAD0020D
:1037F000E06942EAD002206A42EA10120A431A60E3
:1038000022681A4B13441A4AA2FB03231B099B008C
:10381000E3652046FFF722FDE26D02F01F01012261
:103820008A4042605AE74FF48042D5E71022D3E73E
:1038300000236360A2E72046FFF70CFEE36E002240
:103840001A60236F626F5A60A6E70120EEE600BFA0
:103850003F8010FE0010005C0000FFFF10000240DF
:1038600028000240085402580F00FEFFF8ABFDA7E5
:10387000CDCCCCCC002800F03E8170B5044690F849
:103880003400012800F03981012084F8340094F8D4
:103890003500C0B2012807D04FF4006363650023F0
:1038A00084F83430012070BD022084F835000020F7
:1038B00060652068924E934DA84218BFB0422FD049
:1038C0001835A8422CD01835A84229D01835A8425E
:1038D00026D01835A84223D01835A84220D0183554
:1038E000A8421DD005F55675A84219D01835A84232
:1038F00016D01835A84213D01835A84210D0183564
:10390000A8420DD01835A8420AD01835A84207D0D1
:103910001835A84204D0056825F00105056003E0CC
:10392000056825F0010505602046FFF7BDFB23680B
:103930007349744A934218BF8B4238D0183293426D
:1039400035D01832934232D0183293422FD01832E9
:1039500093422CD01832934229D01832934226D069
:1039600002F55672934222D0183293421FD0183279
:1039700093421CD01832934219D01832934216D079
:103980001832934213D01832934210D01832934217
:103990000DD01A6822F00E0242F00A021A60236C5F
:1039A00093B12268136843F0040313600CE01A68B3
:1039B00022F01E0242F016021A60236C23B1226824
:1039C000136843F00803136023684D494D4A93423E
:1039D00018BF8B4242D0183293423FD018329342E4
:1039E0003CD01832934239D01832934236D0183234
:1039F000934233D01832934230D002F5567293423C
:103A00002CD01832934229D01832934226D0183243
:103A1000934223D01832934220D0183293421DD0C3
:103A2000183293421AD01832934217D0364A934232
:103A300014D01432934211D0143293420ED0143267
:103A400093420BD01432934208D01432934205D0E3
:103A50001432934202D0143293420ED1236E1A686C
:103A600012F4803F03D01A6842F480721A60E36E49
:103A70001BB11A6842F480721A6023682049214AF7
:103A8000934218BF8B4230D0183293422DD0183257
:103A900093422AD01832934227D01832934224D02E
:103AA0001832934221D0183293421ED002F556723A
:103AB00093421AD01832934217D01832934214D03E
:103AC0001832934211D0183293420ED018329342DA
:103AD0000BD01832934208D01832934205D01A689E
:103AE00042F001021A600020DDE61A6842F001028D
:103AF0001A600020D7E6012070470220D3E600BFFD
:103B000010000240280002400854025870B50446D4
:103B100000F0D6FE002C00F09181054694F8353077
:103B2000DBB2022B06D080236365002384F8343097
:103B3000012070BD23688C498C4A934218BF8B4288
:103B400030D0183293422DD0183293422AD01832F6
:103B5000934227D01832934224D01832934221D076
:103B6000183293421ED002F5567293421AD0183280
:103B7000934217D01832934214D01832934211D086
:103B8000183293420ED0183293420BD0183293421F
:103B900008D01832934205D01A6822F00E021A603B
:103BA000266809E01A6822F01E021A60226853692A
:103BB00023F080035361266823686B496B4A934264
:103BC00018BF8B4242D0183293423FD018329342F2
:103BD0003CD01832934239D01832934236D0183242
:103BE000934233D01832934230D002F5567293424A
:103BF0002CD01832934229D01832934226D0183252
:103C0000934223D01832934220D0183293421DD0D1
:103C1000183293421AD01832934217D0544A934222
:103C200014D01432934211D0143293420ED0143275
:103C300093420BD01432934208D01432934205D0F1
:103C40001432934202D01432934204D1226E13688C
:103C500023F48073136023684349444A934218BF96
:103C60008B422FD0183293422CD01832934229D055
:103C70001832934226D01832934223D018329342FE
:103C800020D0183293421DD002F55672934219D0BB
:103C90001832934216D01832934213D018329342FE
:103CA00010D0183293420DD0183293420AD01832F5
:103CB000934207D01832934204D01A6822F00102CE
:103CC0001A6003E01A6822F001021A60336813F0E8
:103CD000010F0ED000F0F4FD431B052BF6D9202375
:103CE0006365032384F83530002384F834300120E1
:103CF0001FE723681C491D4A934218BF8B4239D0E5
:103D00001832934236D01832934233D0183293424D
:103D100030D0183293422DD0183293422AD0183224
:103D2000934227D002F55672934223D01832934221
:103D300020D0183293421DD0183293421AD0183234
:103D4000934217D01832934214D01832934211D0B4
:103D5000183293420ED0A16DE36D03F01F020123D0
:103D600093404B600DE000BF10000240280002406D
:103D700008540258A16DE36D03F01F023F239340E6
:103D80008B6023682E492F4A934218BF8B4242D042
:103D9000183293423FD0183293423CD018329342AB
:103DA00039D01832934236D01832934233D0183279
:103DB000934230D002F5567293422CD0183293427F
:103DC00029D01832934226D01832934223D0183289
:103DD000934220D0183293421DD0183293421AD009
:103DE0001832934217D0184A934214D01432934297
:103DF00011D0143293420ED0143293420BD01432AD
:103E0000934208D01432934205D01432934202D028
:103E1000143293420BD1636EA26E5A60E36E33B1DB
:103E20001A6822F480721A60236F626F5A6001234D
:103E300084F83530002084F834007AE6012078E6F2
:103E4000100002402800024008540258002800F0E8
:103E5000298108B5024690F83530DBB2022B03D039
:103E600080234365012008BD0368904890498B4238
:103E700018BF83420CBF0121002166D0303083423D
:103E800063D01830834260D0183083425DD0183040
:103E900083425AD01830834257D01830834254D0CE
:103EA00000F55670834250D0183083424DD0183000
:103EB00083424AD01830834247D01830834244D0DE
:103EC0001830834241D0183083423ED018308342AC
:103ED0003BD0196821F00E0119601368A0F59560B8
:103EE00073498B4218BF83426AD072498B4267D0B4
:103EF00018318B4264D018318B4261D018318B421B
:103F00005ED018318B425BD018318B4258D001F50E
:103F100056718B4254D018318B4251D018318B429C
:103F20004ED018318B424BD018318B4248D01831CB
:103F30008B4245D018318B4242D018318B423FD052
:103F4000196821F0010119603EE0042082F8350073
:103F500081BB584A93422DD0183293422AD018324E
:103F6000934227D01832934224D01832934221D062
:103F7000183293421ED002F5567293421AD018326C
:103F8000934217D01832934214D01832934211D072
:103F9000183293420ED0183293420BD0183293420B
:103FA00008D01832934205D01A6822F001021A6034
:103FB000002058E71A6822F001021A60002052E738
:103FC000196821F0010119601368384838498B429B
:103FD00018BF834242D018318B423FD018318B42F8
:103FE0003CD018318B4239D018318B4236D0183141
:103FF0008B4233D018318B4230D001F556718B4251
:104000002CD018318B4229D018318B4226D0183150
:104010008B4223D018318B4220D018318B421DD0D7
:1040200018318B421AD018318B4217D022498B425B
:1040300014D014318B4211D014318B420ED0143174
:104040008B420BD014318B4208D014318B4205D0F7
:1040500014318B4202D014318B4217D1116E0B6890
:1040600023F480730B60906DD36D03F01F01012367
:104070008B404360536E916E5960D36E33B11968B3
:1040800021F480711960136F516F5960012382F818
:104090003530002382F83430136D2BB11046984729
:1040A0000020E0E6012070470020DCE6100002401E
:1040B000280002404000024008540258F0B583B086
:1040C0000446002301937D4B1D687D4BA3FB053502
:1040D000AD0A876D3E68D7F800C0036879497A4811
:1040E000834218BF8B420CBF0120002061D0774A69
:1040F00093425ED0183293425BD01832934258D02C
:104100001832934255D01832934252D0183293420B
:104110004FD002F5567293424BD01832934248D09A
:104120001832934245D01832934242D0183293420B
:104130003FD0183293423CD01832934239D01832D3
:10414000934236D06249634A934218BF8B4212D0E1
:10415000614A93420FD0143293420CD014329342EE
:1041600009D01432934206D01432934203D0143251
:10417000934240F061821A68E16D01F01F01042052
:10418000884010EA0C0F00F0A78212F0040F00F034
:10419000A382786012F4004F00F05A8212F4803F3C
:1041A00040F05082A36C002B00F0468220469847D6
:1041B00042E2E26D02F01F0108228A40324241D001
:1041C00070BB424A93422BD01832934228D0183207
:1041D000934225D01832934222D0183293421FD0F6
:1041E000183293421CD002F55672934218D01832FE
:1041F000934215D01832934212D0183293420FD006
:10420000183293420CD01832934209D0183293429C
:1042100006D01832934203D01A68C2F3C00202E0FB
:104220001A68C2F380026AB11A6822F004021A60A6
:10423000E36D03F01F0208239340BB60636D43F0FE
:1042400001036365E26D02F01F0226FA02F313F028
:10425000010F47D023681B481B498B4218BF83427C
:104260003CD018318B4239D018318B4236D01831BE
:104270008B4233D018318B4230D018318B422DD045
:1042800018318B422AD001F556718B4226D0183155
:104290008B4223D018318B4220D018318B421DD055
:1042A00018318B421AD018318B4217D018318B42FB
:1042B00014D018318B4211D01B6813E00800002085
:1042C000B5814E1B10000240280002404000024011
:1042D000085402581C540258305402585B6913F0B9
:1042E000800F3BD1E36D03F01F03042202FA03F3B6
:1042F000334240D02268964896498A4218BF82428B
:1043000035D018318A4232D018318A422FD0183134
:104310008A422CD018318A4229D018318A4226D0BC
:1043200018318A4223D001F556718A421FD01831C4
:104330008A421CD018318A4219D018318A4216D0CC
:1043400018318A4213D018318A4210D018318A426B
:104350000DD018318A420AD013680CE0012303FA09
:1043600002F2BA60636D43F002036365BAE7126854
:1043700012F0020F3DD1E36D03F01F03102202FA89
:1043800003F333425FD02268714872498A4218BFF2
:10439000824234D018318A4231D018318A422ED02C
:1043A00018318A422BD018318A4228D018318A42DB
:1043B00025D018318A4222D001F556718A421ED08A
:1043C00018318A421BD018318A4218D018318A42DB
:1043D00015D018318A4212D018318A420FD01831C4
:1043E0008A420CD018318A4209D01268C2F3800286
:1043F00008E0BB60636D43F004036365BBE71268CC
:10440000C2F3C002FAB1BB6023681A6812F4802FAD
:104410000DD01B6813F4002F04D1236C9BB12046F0
:10442000984710E0A36C73B1204698470BE01A68D8
:1044300012F4807F03D11A6822F008021A60236CFC
:104440000BB120469847E36D03F01F03202202FAC8
:1044500003F3334200F0928022683D483D498A428E
:1044600018BF82422ED018318A422BD018318A428E
:1044700028D018318A4225D018318A4222D01831EA
:104480008A421FD018318A421CD001F556718A42E7
:1044900018D018318A4215D018318A4212D01831FA
:1044A0008A420FD018318A420CD018318A4209D082
:1044B00018318A4206D018318A4203D01268C2F3FA
:1044C000400202E01268C2F30012002A56D0BB601C
:1044D00094F83530DBB2042B0ED023681A6812F43E
:1044E000802F39D01B6813F4002F2CD1636C002B64
:1044F00044D02046984741E02268136823F0160311
:1045000013602268536923F080035361236CB3B1B5
:104510002268136823F008031360E36D03F01F02A1
:104520003F239340BB60012384F83530002384F897
:104530003430236D002B7FD0204698477CE0A36C5D
:10454000002BE5D1E9E7E36BC3B12046984715E0BE
:1045500010000240280002401A6812F4807F09D13E
:104560001A6822F010021A60012384F83530002303
:1045700084F83430E36B0BB120469847636D002B11
:104580005AD0636D13F0010F52D0042384F83530F4
:1045900023689649964A934218BF8B422FD018320F
:1045A00093422CD01832934229D01832934226D00D
:1045B0001832934223D01832934220D018329342BB
:1045C0001DD002F55672934219D01832934216D07C
:1045D0001832934213D01832934210D018329342BB
:1045E0000DD0183293420AD01832934207D01832B5
:1045F000934204D01A6822F001021A6003E01A689C
:1046000022F001021A60019B01330193AB4204D8EE
:1046100023681B6813F0010FF5D123681B6813F0A2
:10462000010F0BD0032384F83530002384F8343095
:10463000E36C0BB12046984703B0F0BD012384F82A
:104640003530F2E7236C002BF6D020469847F3E78D
:1046500012F0200F3AD123686449654A934218BF8B
:104660008B422FD0183293422CD01832934229D04B
:104670001832934226D01832934223D018329342F4
:1046800020D0183293421DD002F55672934219D0B1
:104690001832934216D01832934213D018329342F4
:1046A00010D0183293420DD0183293420AD01832EB
:1046B000934207D01832934204D01A6822F00402C1
:1046C0001A6003E01A6822F008021A60236C002BBB
:1046D000B2D020469847AFE70220884010EA0C0F7E
:1046E00060D012F0020F5DD0786012F4004F0ED04F
:1046F00012F4803F05D1636C002B9DD02046984773
:104700009AE7E36B002B97D02046984794E712F086
:10471000200F40D123683549354A934218BF8B4258
:104720002FD0183293422CD01832934229D018320D
:10473000934226D01832934223D01832934220D08D
:10474000183293421DD002F55672934219D0183296
:10475000934216D01832934213D01832934210D09D
:10476000183293420DD0183293420AD01832934235
:1047700007D01832934204D01A6822F00A021A6055
:1047800003E01A6822F014021A60012384F835301D
:10479000002384F83430E36B002B3FF44DAF204608
:1047A000984749E7082000FA01F111EA0C0F3FF49D
:1047B00043AF12F0080F3FF43FAF1A6822F00E0229
:1047C0001A60E36D03F01F03012202FA03F37B601A
:1047D000626584F83520002384F83430E36C002BC4
:1047E0003FF42AAF2046984726E700BF100002405A
:1047F00028000240406D7047134BDB6813F0040F34
:1048000007D1114BDB6803F0070383421AD0012064
:10481000704710B50C4AD36823F007031843D060E3
:1048200000F04EF80446084B5B6813F4005F07D1B4
:1048300000F046F8001BB0F57A7FF4D9012000E0C3
:10484000002010BD002070470048025810B503201A
:10485000FCF70AFCFDF702F80F498B69C3F3032349
:104860000E4AD35C03F01F03D8408B6903F00F039B
:10487000D35C03F01F0320FA03F3094A1360094BCA
:1048800018600F2004F002FF10B10124204610BD73
:104890000446FCF721FBF9E70044025810CE00085B
:1048A0000C00002008000020034B1B78034A11680D
:1048B0000B441360704700BF00000020AC050020CF
:1048C000014B1868704700BFAC05002038B504469E
:1048D000FFF7F6FF0546B4F1FF3F02D0044B1B780B
:1048E0001C44FFF7EDFF401BA042FAD338BD00BFC8
:1048F00000000020014B1868000C70470010005C9D
:10490000F0B4036A026A22F0010202624668846916
:104910001F4A22400D68154323F002038C6823438D
:104920001C4A1D4CA04218BF90420CBF012200221D
:104930000CD004F58044A04214BF00240124174F7A
:10494000B84203D014B9164CA04205D123F0080395
:10495000CC68234323F004035AB9124A904214BF8F
:10496000002201220D4CA04203D012B90C4A904201
:1049700007D126F4407C4A6942EA0C0C8E6946EA6B
:104980000C06466085614A6842630362F0BC70476A
:104990008CFFFEFF00000140000401400040014088
:1049A000004801400044014070B4036A026A22F4E6
:1049B000807202624568C4691A4A22400E68164332
:1049C00023F400738A6843EA0223174A174CA04273
:1049D00018BF90420CBF0122002206D123F40063CD
:1049E000CC6843EA042323F480635AB9104A904206
:1049F00014BF002201220F4CA04203D012B90E4A6C
:104A0000904207D125F4405C4A694CEA021C8D694A
:104A10004CEA05154560C6614A68C263036270BC12
:104A2000704700BF8CFFFEFF000001400004014002
:104A300000440140004001400048014070B4036A56
:104A4000026A22F4805202624468C569144A2A400C
:104A50000D6842EA052223F400538D6843EA0533CA
:104A6000104E114DA84218BFB0420DD005F580453B
:104A7000A84214BF0025012506F58046B04203D0A8
:104A800015B90A4DA84204D124F480444D6944EA82
:104A900085144460C2614A680264036270BC704756
:104AA000FF8CFFFE0000014000040140004801406F
:104AB00070B4036A026A22F4803202624268456D71
:104AC000144C2C400D682C4323F400338D6843EACA
:104AD0000543114E114DA84218BFB0420DD005F547
:104AE0008045A84214BF0025012506F58046B04246
:104AF00003D015B90A4DA84204D122F480324D6981
:104B000042EA0522426044654A688265036270BCDD
:104B1000704700BF8FFFFEFF00000140000401400E
:104B20000048014070B4036A026A22F480120262F3
:104B30004468456D144A2A400D6842EA052223F470
:104B400000138D6843EA0553104E114DA84218BF5B
:104B5000B0420DD005F58045A84214BF00250125BF
:104B600006F58046B04203D015B90A4DA84204D1DB
:104B700024F480244D6944EA8524446042654A68EF
:104B8000C265036270BC7047FF8FFFFE00000140EA
:104B9000000401400048014010B4036A046A24F094
:104BA00001040462846924F0F00C4CEA021223F040
:104BB0000A030B43826103625DF8044B704710B433
:104BC000036A046A24F010040462846924F4704CBB
:104BD0004CEA023223F0A00343EA0113826103622C
:104BE0005DF8044B704700008268034B13400B4391
:104BF00043F00703836070478FFFCFFF90F83D308D
:104C0000DBB2012B3AD1022380F83D300268D36831
:104C100043F00103D36003681A4AB3F1804F18BF11
:104C200093421DD0A2F57C42934219D002F58062D6
:104C3000934215D002F58062934211D002F578427A
:104C400093420DD0A2F56C42934209D002F5943202
:104C5000934205D01A6842F001021A6000207047A2
:104C60009968094A0A40062A18BFB2F5803F07D062
:104C70001A6842F001021A60002070470120704754
:104C80000020704700000140070001007047704796
:104C900070477047704770B504460368DE681D6949
:104CA00015F0020F10D016F0020F0DD06FF00202B7
:104CB0001A610123037703689B6913F0030F64D023
:104CC000FFF7E6FF0023237715F0040F12D016F04C
:104CD000040F0FD023686FF004021A6102232377B8
:104CE00023689B6913F4407F55D02046FFF7D0FF1F
:104CF0000023237715F0080F12D016F0080F0FD0FD
:104D000023686FF008021A61042323772368DB69A4
:104D100013F0030F46D02046FFF7BAFF0023237796
:104D200015F0100F12D016F0100F0FD023686FF08F
:104D300010021A61082323772368DB6913F4407F8C
:104D400037D02046FFF7A4FF0023237715F0010F8B
:104D500002D016F0010F33D115F4025F02D016F025
:104D6000800F35D115F4807F02D016F0800F37D137
:104D700015F0400F02D016F0400F39D115F0200F7A
:104D800002D016F0200F3BD170BDFFF780FF204608
:104D9000FFF77FFF96E72046FFF779FF2046FFF7F2
:104DA00078FFA5E72046FFF772FF2046FFF771FF67
:104DB000B4E72046FFF76BFF2046FFF76AFFC3E723
:104DC00023686FF001021A612046FBF751FCC3E72C
:104DD00023686FF402521A61204600F0FEFBC1E71F
:104DE00023686FF480721A61204600F0F7FBBFE77A
:104DF00023686FF040021A612046FFF74BFFBDE7C2
:104E000023686FF020021A61204600F0E5FBBBE743
:104E100030B503683D4A904214BF4FF0000E4FF08A
:104E2000010EB0F1804F14BF72464EF00102AAB9D4
:104E3000374CA04214BF00240124364DA8420DD0A7
:104E400064B904F1804404F58234A04214BF002404
:104E5000012405F50065A84200D01CB123F07003C1
:104E60004C68234312BB2A4A904214BF00220122FD
:104E7000284CA0421AD0CAB902F1804202F582320F
:104E8000904214BF0022012204F50064A0420DD01C
:104E900062B9214A904214BF0022012204F59A34DB
:104EA000A04203D012B91D4A904204D123F4407CA1
:104EB000CB6843EA0C0323F080034A691343036081
:104EC0008A68C2620A688262154A904214BF7346B9
:104ED0004EF0010363B9104B984214BF0023012325
:104EE00002F57052904203D013B90C4B984201D195
:104EF0000B69036301234361036913F0010F03D0BE
:104F0000036923F00103036130BD00BF00000140CD
:104F100000080040000400400044014000480140F7
:104F20000004014060B310B5044690F83D3013B35F
:104F3000022384F83D30214651F8040BFFF768FF47
:104F4000012384F8483084F83E3084F83F3084F8F8
:104F5000403084F8413084F8423084F8433084F89B
:104F6000443084F8453084F8463084F8473084F87B
:104F70003D30002010BD80F83C3007F079F8D7E7CD
:104F80000120704760B310B5044690F83D3013B36C
:104F9000022384F83D30214651F8040BFFF738FF17
:104FA000012384F8483084F83E3084F83F3084F898
:104FB000403084F8413084F8423084F8433084F83B
:104FC000443084F8453084F8463084F8473084F81B
:104FD0003D30002010BD80F83C30FFF757FED7E78A
:104FE0000120704770B4036A026A22F01002026264
:104FF000456884691A4A22400E6842EA062623F070
:1050000020038A6843EA0213164A174CA04218BFCD
:1050100090420CBF0122002206D123F08003CC680D
:1050200043EA041323F040035AB9104A904214BFD4
:10503000002201220E4CA04203D012B90D4A904228
:1050400007D125F4406C4A694CEA820C8D694CEA20
:105050008505456086614A688263036270BC70475B
:10506000FF8CFFFE000001400004014000440140AD
:10507000004001400048014038B590F83C30012B19
:1050800000F0958004460D46012380F83C30142A38
:1050900000F28880DFE802F00B8686861F8686860F
:1050A00034868686488686865D8686867100006898
:1050B000FFF726FC2268936943F008039361226896
:1050C000936923F0040393612268936929690B4370
:1050D0009361002067E00068FFF784FF226893690E
:1050E00043F4006393612268936923F480639361BE
:1050F00022689369296943EA01239361002052E001
:105100000068FFF751FC2268D36943F00803D361BC
:105110002268D36923F00403D3612268D369296923
:105120000B43D36100203EE00068FFF787FC226854
:10513000D36943F40063D3612268D36923F48063A5
:10514000D3612268D369296943EA0123D36100202E
:1051500029E00068FFF7ACFC2268536D43F00803B8
:1051600053652268536D23F0040353652268536D21
:1051700029690B435365002015E00068FFF7D2FC56
:105180002268536D43F4006353652268536D23F422
:10519000806353652268536D296943EA012353658F
:1051A000002000E00120002384F83C3038BD0220BC
:1051B000FCE710B4846824F47F4C42EA03220A43DB
:1051C00042EA0C0282605DF8044B704790F83C3074
:1051D000012B00F08F8010B50446012380F83C308D
:1051E000022380F83D3002689068434B034093608F
:1051F0000B68702B55D031D8502B6CD00CD9602B4C
:105200002AD1CA6849682068FFF7D9FC6021206864
:10521000FFF7EAFC002035E0402B0AD1CA68496854
:105220002068FFF7B9FC40212068FFF7DDFC002073
:1052300028E05BD8202B07D003D9302B04D00120E5
:1052400020E00BB1102B05D119462068FFF7CCFCEC
:10525000002017E0012015E0012013E0B3F5005F06
:105260002CD00BD9254A9342EED012D9244A93422E
:10527000EAD010329342E7D0012003E0B3F5805F1B
:1052800036D10020012384F83D30002384F83C30DF
:1052900010BDB3F5801FD7D0B3F1101FD4D00120BB
:1052A000F0E7CB684A6889682068FFF782FF2268C8
:1052B000936843F0770393600020E3E7CB684A6884
:1052C00089682068FFF775FF2268936843F480437C
:1052D00093600020D6E7CA6849682068FFF75CFC45
:1052E00050212068FFF780FC0020CBE70120C9E7B0
:1052F0000120C7E7022070478800CEFF2000100081
:105300003000100010B50468A3684C4A1A404B687E
:1053100013434B4A1A400B681343A3604B68602B3E
:1053200068D01CD8402B50D008D9502B15D10A6911
:1053300089680068FFF730FC002035E0202B60D042
:1053400003D9302B07D001202EE0002B5BD0102B8F
:105350005BD1002028E0002026E0012024E0702B13
:105360002BD001D201201FE0364A93424FD008D9FA
:10537000B3F5001F57D018D9334A934259D10020B2
:1053800012E0303A934244D007D9304A934246D093
:105390001032934245D1002006E0B3F5801F3AD089
:1053A000B3F1101F39D1002010BD294A93423CD0DF
:1053B000103293423BD10020F6E70B698A68C96836
:1053C0000068FFF7F6FE0020EEE70B68052B32D0F1
:1053D00003681C6A1A6A22F001021A620268936961
:1053E00023F0F003096943EA0113936103681C6227
:1053F0000020D9E70A6989680068FFF7E0FB002010
:10540000D2E70020D0E70020CEE70120CCE7002043
:10541000CAE70020C8E70020C6E70120C4E7002053
:10542000C2E70120C0E70020BEE70020BCE7012062
:10543000BAE70120B8E70120B6E700BF8FFFCFFF32
:10544000F8FFFEFF50001000100020003000100098
:105450006000100090F83C30012B22D010B50446BB
:10546000012380F83C30022380F83D30FFF74AFFEB
:1054700080B92268D36823F04003D3602268D368E0
:1054800023F48043D360012384F83D30002384F863
:105490003C3010BD012084F83D00002384F83C30EE
:1054A000F7E702207047000090F83C30012B45D010
:1054B00070B4012380F83C30022380F83D3003684B
:1054C0005A689C681E4E1F4DAB4218BFB34203D1B1
:1054D00022F470024D682A4322F070020D682A43BC
:1054E0005A600368164AB3F1804F18BF934217D031
:1054F000A2F57C42934213D002F5806293420FD012
:1055000002F5806293420BD002F57842934207D0B5
:10551000A2F56C42934203D002F59432934204D137
:1055200024F080048A6814439C60012380F83D3095
:10553000002380F83C30184670BC7047022070474A
:10554000000001400004014090F83C30012B3CD0A9
:1055500030B4012380F83C30CB6823F440738A6870
:10556000134323F480634A68134323F400630A68F7
:10557000134323F480530A69134323F400534A6905
:10558000134323F480438A6A134323F470238A6904
:1055900043EA024302680E4D0E4CA24218BFAA42D3
:1055A0000CD123F470034C6A43EA045323F0807354
:1055B000CC69234323F00073096A0B43536400232F
:1055C00080F83C30184630BC70470220704700BF5E
:1055D00000000140000401407047704770470268B6
:1055E00052E8003F23F0C00342E800310029F6D121
:1055F000026802F1080353E8003F23F40003083275
:1056000042E800310029F3D12023C0F888307047E8
:10561000026852E8003F23F4907342E80031002909
:10562000F6D1026802F1080353E8001F0D4B0B404E
:10563000083242E800310029F3D1C36E012B06D0B5
:105640002023C0F88C300023C3664367704702688C
:1056500052E8003F23F0100342E800310029F6D160
:10566000EEE700BFFEFFFFEF10B50446226852E8E8
:10567000003F23F4907342E800310029F6D12268FC
:1056800002F1080353E8001F244B0B40083242E8A4
:1056900000310029F3D1E36E012B2AD023689B68E7
:1056A00013F0400F15D0226802F1080353E8003FC1
:1056B00023F04003083242E800310029F3D1D4F846
:1056C000803033B100221A65D4F88000FEF71EFA4C
:1056D000C8B90020A4F85E0023680F221A6222686D
:1056E000936943F0080393612023C4F88C30E0668B
:1056F00010BD226852E8003F23F0100342E8003159
:105700000029F6D1CAE7D4F88000FFF773F8202803
:10571000DFD11023C4F890300320E9E7FEFFFFEF4C
:10572000704708B5026852E8003F23F0400342E8A2
:1057300000310029F6D12023C0F888300023836788
:10574000FFF7EEFF08BD7047704738B5846BD4F89B
:105750008820D4F88C5023689B6813F0800F01D008
:10576000212A10D023689B6813F0400F01D0222D0E
:1057700010D0D4F8903043F01003C4F89030204695
:1057800002F044FA38BD0023A4F856302046FFF753
:1057900026FFE7E70023A4F85E302046FFF738FF36
:1057A000E7E708B5806B0023A0F85E30A0F856301C
:1057B00002F02CFA08BD000070B504460168CB6900
:1057C00008688D6840F60F021A4008D113F0200FC8
:1057D00005D010F0200F34D115F0805F31D12AB1FF
:1057E0008B4A2A4033D18B4E304230D1E26E012AAF
:1057F00000F0C68013F4801F03D015F4800F40F032
:105800009B8113F0800F07D010F0800F40F09B8138
:1058100015F4000F40F0978113F0400F03D010F003
:10582000400F40F0978113F4000F03D010F0804F29
:1058300040F0948113F0807F02D00028C0F2928162
:1058400070BD636F002BFBD020469847F8E713F03C
:10585000010F09D010F4807F06D001260E62D4F823
:1058600090103143C4F8901013F0020F0BD015F0D4
:10587000010F08D0216802260E62D4F8901041F082
:105880000401C4F8901013F0040F0BD015F0010FB1
:1058900008D0216804260E62D4F8901041F002016D
:1058A000C4F8901013F0080F0BD010F0200F00D1A7
:1058B0003AB1226808211162D4F890200A43C4F852
:1058C000902013F4006F0CD010F0806F09D0226884
:1058D0004FF400611162D4F8902042F02002C4F825
:1058E0009020D4F89020002AAAD013F0200F09D0DD
:1058F00010F0200F02D115F0805F03D0636F0BB161
:1059000020469847D4F8902023689B6813F0400FF6
:1059100002D112F0280F2CD02046FFF779FE236821
:105920009B6813F0400F20D0226802F1080353E86F
:10593000003F23F04003083242E800310029F3D150
:10594000D4F880306BB1344A1A65D4F88000FEF781
:105950007DFA00283FF474AFD4F88000036D9847B7
:105960006EE7204602F052F96AE7204602F04EF94F
:1059700066E7204602F04AF90023C4F890305FE75A
:1059800013F0100F3FF436AF10F0100F3FF432AFAA
:1059900010230B6223689B6813F0400F00F0928085
:1059A000D4F8802013681D481D498B4218BF8342DC
:1059B00038D018318B4235D018318B4232D0183163
:1059C0008B422FD018318B422CD018318B4229D0EA
:1059D00018318B4226D001F556718B4222D01831F6
:1059E0008B421FD018318B421CD018318B4219D0FA
:1059F00018318B4216D018318B4213D018318B429C
:105A000010D018318B420DD05B689BB20CE000BF08
:105A10000100001020010004A357000810000240FC
:105A2000280002405B689BB2002B3FF409AFB4F83A
:105A30005C1099427FF604AFA4F85E30D369B3F5E9
:105A4000807F32D0226852E8003F23F4807342E81E
:105A500000310029F6D1226802F1080353E8003F23
:105A600023F00103083242E800310029F3D1226813
:105A700002F1080353E8003F23F04003083242E8F4
:105A800000310029F3D12023C4F88C300023E366D1
:105A9000226852E8003F23F0100342E80031002959
:105AA000F6D1D4F88000FEF731F802232367B4F86A
:105AB0005C10B4F85E309BB2C91A89B2204602F07D
:105AC00041F8BDE6B4F85C10B4F85E309BB2C91A78
:105AD00089B2B4F85E309BB2002B3FF4B1AE00291E
